:100000000C943E050C9466050C9466050C946605EC
:100010000C9466050C9466050C9466050C946605B4
:100020000C9466050C9466050C9410070C948207DA
:100030000C9466050C9466050C9466050C94660594
:100040000C9466050C94A10C0C9466050C94660542
:100050000C9466050C9466050C9466050C94B40B20
:100060000C9466050C9466050C9466050C94660564
:100070000C9466050C9466050C9466050C94660554
:100080000C943F0D0C9466050C9466050C94660563
:100090000C9466050C9466050C9466050C94660534
:1000A0000C9466050C9466050C946605DD09E00960
:1000B000CF09D309D709010A010A010AE409E809AD
:1000C000EC09F209F609010AFC09780A7D0A820A9C
:1000D0008C0A960AE00AE00AE00AA00AAA0AB40A10
:1000E000BE0ACB0AE00AD30A00000000003E5B4FC4
:1000F0005B3E3E6B4F6B3E1C3E7C3E1C183C7E3C88
:10010000181C577D571C1C5E7F5E1C00183C180095
:10011000FFE7C3E7FF0018241800FFE7DBE7FF3025
:10012000483A060E2629792926407F050507407F93
:1001300005253F5A3CE73C5A7F3E1C1C08081C1C06
:100140003E7F14227F22145F5F005F5F06097F01FC
:100150007F006689956A606060606094A2FFA294E7
:1001600008047E040810207E201008082A1C0808B5
:100170001C2A08081E101010100C1E0C1E0C303803
:100180003E3830060E3E0E06000000000000005F04
:1001900000000007000700147F147F14242A7F2A20
:1001A00012231308646236495620500008070300E2
:1001B000001C2241000041221C002A1C7F1C2A082E
:1001C000083E080800807030000808080808000091
:1001D00060600020100804023E5149453E00427F05
:1001E000400072494949462141494D331814127F54
:1001F0001027454545393C4A4949314121110907F4
:100200003649494936464949291E00001400000074
:100210004034000000081422411414141414004146
:1002200022140802015909063E415D594E7C121103
:10023000127C7F494949363E414141227F4141413B
:100240003E7F494949417F090909013E41415173B6
:100250007F0808087F00417F41002040413F017F27
:10026000081422417F404040407F021C027F7F04EF
:1002700008107F3E4141413E7F090909063E415138
:10028000215E7F09192946264949493203017F0128
:10029000033F4040403F1F2040201F3F4038403F29
:1002A000631408146303047804036159494D43003F
:1002B0007F4141410204081020004141417F040276
:1002C000010204404040404000030708002054540D
:1002D00078407F28444438384444442838444428EB
:1002E0007F385454541800087E090218A4A49C783E
:1002F0007F0804047800447D40002040403D007F9A
:100300001028440000417F40007C047804787C0879
:100310000404783844444438FC182424181824244D
:1003200018FC7C08040408485454542404043F4432
:10033000243C4040207C1C2040201C3C4030403C61
:1003400044281028444C9090907C4464544C4400C1
:100350000836410000007700000041360800020125
:100360000204023C2623263C1EA1A161123A404011
:10037000207A38545455592155557941215454788F
:1003800041215554784020545579400C1E52721228
:1003900039555555593954545459395554545800B0
:1003A00000457C410002457D420001457C40F0292A
:1003B0002429F0F0282528F07C5455450020545479
:1003C0007C547C0A097F49324949493232484848BD
:1003D00032324A4848303A4141217A3A4240207804
:1003E000009DA0A07D39444444393D4040403D3CFF
:1003F00024FF2424487E4943662B2FFC2F2BFF0922
:1004000029F620C0887E0903205454794100004415
:100410007D413048484A32384040227A007A0A0A00
:10042000727D0D19317D2629292F28262929292673
:1004300030484D4020380808080808080808382FB8
:1004400010C8ACBA2F102834FA00007B0000081442
:100450002A142222142A14089500220095AA005575
:1004600000AAAA55AA55AA000000FF00101010FF0C
:1004700000141414FF001010FF00FF1010F010F013
:10048000141414FC001414F700FF0000FF00FF1404
:1004900014F404FC141417101F10101F101F141450
:1004A000141F00101010F0000000001F101010109A
:1004B0001F10101010F010000000FF10101010108E
:1004C00010101010FF10000000FF140000FF00FFCC
:1004D00000001F10170000FC04F414141710171468
:1004E00014F404F40000FF00F7141414141414148A
:1004F000F700F7141414171410101F101F141414FD
:10050000F4141010F010F000001F101F0000001F66
:1005100014000000FC140000F010F01010FF10FF99
:10052000141414FF141010101F00000000F010FF2E
:10053000FFFFFFFFF0F0F0F0F0FFFFFF0000000012
:1005400000FFFF0F0F0F0F0F38444438447C2A2A56
:100550003E147E02020606027E027E026355494177
:10056000633844443C04407E201E2006027E020282
:1005700099A5E7A5991C2A492A1C4C7201724C3096
:100580004A4D4D303048784830BC625A463D3E496D
:100590004949007E0101017E2A2A2A2A2A44445F11
:1005A000444440514A444040444A51400000FF0105
:1005B00003E080FF000008086B6B08361236243613
:1005C000060F090F06000018180000001010003078
:1005D00040FF0101001F01011E00191D1712003C00
:1005E0003C3C3C00000000000601150126013701DB
:1005F0004A015D01720188019F01B801D201EE013B
:100600000B022A024B026E029302BA02E4021003AA
:100610003F037003A403DC03170455049704DD04AF
:1006200027057505C80520067D06E0064907B807B9
:100630002D08A9082D09B9094D0AEA0A900B400CAA
:10064000FA0CC00D910E6F0F5A1053115B127213FA
:100650009A14D41520178018F519801B231DDE1E4F
:10066000B420A622B524E4263429A72B402E00313D
:10067000EA330037453ABC3D68414C456B49C84DAB
:1006800068524F57805C006210111213151617182C
:100690001A1C1D1F21232527292C2E3134373A3EC1
:1006A0004145494E52575C62686E757B838B939CC3
:1006B000A5AFB9C4D0DCE9F70000000200090F00C3
:1006C00000030401000C0000000000000000000016
:1006D00000000000000000080B00020202010009F7
:1006E000040000010202000005240010010524019D
:1006F00001010424020605240600010705810310F8
:10070000004009040100020A00000007050202403F
:1007100000000705830240000004030904120100E1
:1007200002EF020140412336800001010203014132
:10073000726475696E6F204C4C4300417264756938
:100740006E6F204C656F6E6172646F00F0F89C8E66
:100750008783878E9CF8F00000FEFF0303030303EA
:10076000070EFCF80000FEFF0303030303070EFC63
:10077000F80000FFFF00000000000000FFFF000085
:10078000FEFF8383838383C7EE7C380000F8FC0E72
:1007900007030303070EFCF800003F7FE0C08080E2
:1007A000C0E07F3FFFFF01010101010101FFFF00E8
:1007B00000FFFF0C0C0C0C1C3E77E3C100007FFF18
:1007C000C0C0C0C0C0E0703F1F00001F3F70E0C04D
:1007D000C0C0E0703F1F00007FFFC1C1C1C1C1E3C5
:1007E000773E1C00001F3F70E0C0C0C0E0703F1F9C
:1007F000000000000001FFFF0100000000000000F9
:10080000240027002A002D003000D5F08D14A1C847
:1008100081CFD9F1AF200014021302120215020792
:1008200002080204010C010601004040007E7E7EA9
:100830007E7E7E007E7E7E7E7E7E007E7E7E7E7ED4
:100840007E007E7E7E7E7E7E007E7E7E7E7E7E0042
:100850007E7E7E7E7E7E007E7E7E7E7E7E007E7EB4
:100860007E7E7E7E007E7E7E7E7E7E0000BFBFBF5F
:10087000BFBFBF00BFBFBFBFBF1F001FBFBFBFBF46
:10088000BF00BFBFBFBFBFBF00BFBFBFBFBFBF00B5
:10089000BFBFBFBFBFBF00BFBFBFBFBF1F001FBF26
:1008A000BFBFBFBF00BFBFBFBFBFBF0000DFDFDF35
:1008B000DFDFDF00DFDFDFDFDFDF00DFDFDFDFDF06
:1008C000DF00DFDFDFDFDFDF00DFDFDFDFDFDF00D5
:1008D000DFDFDFDFDFDF00DFDFDFDFDFDF00DFDFE6
:1008E000DFDFDFDF00DFDFDFDFDFDF0000EFEFEF85
:1008F000EFEFEF00EFEFEFEFEFEF00EFEFEFEFEFE6
:10090000EF00EFEFEFEFEFEF00EFEFEFEFEFEF00C4
:10091000EFEFEFEFEFEF00EFEFEFEFEFEF00EFEFC5
:10092000EFEFEFEF00EFEFEFEFEFEF0000F7F7F78C
:10093000F7F7F700F7F7F7F7F7F700F7F7F7F7F735
:10094000F700F7F7F7F7F7F700F7F7F7F7F7F7001C
:10095000F7F7F7F7F7F700F7F7F7F7F7F700F7F715
:10096000F7F7F7F700F7F7F7F7F7F70000FBFBFBF0
:10097000FBFBFB00FBFBFBFBFBFB00FBFBFBFBFBBD
:10098000FB00FBFBFBFBFBFB00FBFBFBFBFBFB00A8
:10099000FBFBFBFBFBFB00FBFBFBFBFBFB00FBFB9D
:1009A000FBFBFBFB00FBFBFBFBFBFB0000FDFDFD82
:1009B000FDFDFD00FDFDFDFDFDF800F8FDFDFDFD6B
:1009C000FD00FDFDFDFDFDFD00FDFDFDFDFDFD004E
:1009D000FDFDFDFDFDFD00FDFDFDFDFDF800F8FD4B
:1009E000FDFDFDFD00FDFDFDFDFDFD00007E7E7EAB
:1009F0007E7E7E007E7E7E7E7E7E007E7E7E7E7E13
:100A00007E007E7E7E7E7E7E007E7E7E7E7E7E0080
:100A10007E7E7E7E7E7E007E7E7E7E7E7E007E7EF2
:100A20007E7E7E7E007E7E7E7E7E7E0004080201CB
:100A30001040804010204080408008020401804027
:100A400020100201108010204040200000000025EE
:100A50000028002B002E00310004040404040304C9
:100A6000050202020204030202020206060606064C
:100A7000060404020202040403010B1811241FBE21
:100A8000CFEFDAE0DEBFCDBF11E0A0E0B1E0ECEAED
:100A9000F9E302C005900D92AA38B107D9F726E014
:100AA000AAE8B1E001C01D92A43AB207E1F715E04F
:100AB000CEE3D5E004C02197FE010E94A41CCD33F3
:100AC000D107C9F70E9469120C94D41C0C94000041
:100AD00040919E0150919F0120919C0130919D0178
:100AE00042175307B4F49091E8009570E1F39091A8
:100AF000E80092FD19C08093F10080919E019091D1
:100B00009F0101968F739927892B19F48EEF80939B
:100B1000E80080919E0190919F01019690939F0122
:100B200080939E0181E0089580E00895CF92DF9246
:100B3000EF92FF920F931F93CF93DF931F92CDB746
:100B4000DEB7182F062FE42E862F880F8E5F99832D
:100B50000E94680583E00E946805F12EC12E9981EC
:100B6000D92E8C2D8F19801798F4F601E7FE02C05C
:100B7000849101C080810E946805182F80E00E9446
:100B800068058123FFEFCF1ADF0A8111EACF01C088
:100B900081E00F90DF91CF911F910F91FF90EF9027
:100BA000DF90CF900895DF92EF92FF920F931F9303
:100BB000CF93DF93D82E8A017B01E40EF51EEB0163
:100BC000CE15DF0571F0D7FE03C0FE01849101C090
:100BD00088810E94680521968111F2CF8FEF9FEFE7
:100BE00001C0C801DF91CF911F910F91FF90EF904D
:100BF000DF900895615030F02091F100FC012083D6
:100C00000196F8CF289884E68093BF010895CF928B
:100C1000DF92EF92FF920F931F93CF93DF936C01BC
:100C20007A018B01C0E0D0E0CE15DF0589F0D80154
:100C30006D918D01D601ED91FC910190F081E02D37
:100C4000C6010995892B11F47E0102C02196ECCFD3
:100C5000C701DF91CF911F910F91FF90EF90DF902F
:100C6000CF900895CF93DF931F92CDB7DEB76983FE
:100C7000DC01ED91FC910280F381E02D41E050E038
:100C8000BE016F5F7F4F09950F90DF91CF9108955F
:100C900083E08093E9008091F200882319F08AE3D1
:100CA0008093E8000895FC018485958597FD0BC02D
:100CB0009FB7F89482E08093E9008091F2009FBF93
:100CC00090E0019608959FB7F89482E08093E90040
:100CD0008091F2009FBF90E008953FB7F894809113
:100CE000980190919901A0919A01B0919B0126B52C
:100CF000A89B05C02F3F19F00196A11DB11D3FBF54
:100D0000BA2FA92F982F8827820F911DA11DB11DE1
:100D1000BC01CD0142E0660F771F881F991F4A95DD
:100D2000D1F70895089580E090E008950E94BE1CD8
:100D30000F931F93CF93DF931F92CDB7DEB782E05F
:100D4000898342E450E067ED76E080E80E94D305B5
:100D50000E945512DC0112960D911C9113970115FA
:100D6000110569F0D801ED91FC910280F381E02D2D
:100D7000BE016F5F7F4FC801099597FF07C089814A
:100D80000F90DF91CF911F910F910895F801008589
:100D90001185E5CF0E94441290E008950F931F93B0
:100DA000CF93DF931F92CDB7DEB78C01FC01848512
:100DB000958597FF0EC0CE0101960E941A120197E9
:100DC00019F4298130E002C02FEF3FEFF801358799
:100DD0002487F801848595850F90DF91CF911F912D
:100DE0000F910895CF93DF931F92CDB7DEB7FC012B
:100DF0008485958597FD05C02FEF3FEF35872487C4
:100E00000BC0CE0101960E941A12019719F4898134
:100E100090E002C08FEF9FEF0F90DF91CF91089588
:100E20001F920F920FB60F9211248F939F93809170
:100E3000E1009091E100937F9093E10083FF0FC068
:100E40001092E90091E09093EB001092EC0092E395
:100E50009093ED001092C00198E09093F00082FF13
:100E600020C093E09093E9009091F200992319F04B
:100E70009AE39093E8009091A001992339F0909122
:100E8000A00191509093A001992389F19091BF0105
:100E9000992339F09091BF0191509093BF0199230C
:100EA00041F184FF10C08091E2008E7E81608093CA
:100EB000E2008091E1008F7E8093E1008091A201A9
:100EC0008E7E806111C080FF16C08091E2008E7E10
:100ED00080618093E2008091E1008E7E8093E1004A
:100EE0008091A2018E7E81608093A20104C05D9AF0
:100EF000CDCF289AD6CF9F918F910F900FBE0F9094
:100F00001F9018951F920F920FB60F921124CF9237
:100F1000DF92EF92FF920F931F932F933F934F9384
:100F20005F936F937F938F939F93AF93BF93EF9351
:100F3000FF93CF93DF93CDB7DEB76C97DEBFCDBF06
:100F40001092E9008091E80083FFEDC168E0CE01D6
:100F500045960E94FA0582EF8093E8008D8987FF0D
:100F600005C09091E80090FFFCCF03C09EEF9093E6
:100F7000E800982F907609F0C6C09E892F89188DB9
:100F800091110CC0803829F48091A3018093F10065
:100F900002C01092F1001092F10048C1422F50E0BF
:100FA000512B913051F4811141C14130510509F06B
:100FB0003DC18091A3018D7F0BC0933061F48111FD
:100FC00035C14130510509F031C18091A3018260E2
:100FD0008093A3012BC1953041F48091E80080FFFC
:100FE000FCCF20682093E30021C1963009F05FC058
:100FF000EB8CFC8C1092E90010929F0110929E01E4
:10100000123091F510929D0110929C010E94980659
:1010100099E0BE016F5F7F4FDB01E92F1D92EA95DA
:10102000E9F799831A8391E09E8390EA98879AEF73
:10103000998720919E0130919F01275F3F4F3C830C
:101040002B838D831092E90010929F0110929E01D4
:10105000F0929D01E0929C0149E050E080E00E9406
:10106000D3050E949806E2C0F0929D01E0929C0197
:101070000E945512DC011296ED90FC901397E1143A
:10108000F10409F4C0C0D701ED91FC910480F58111
:10109000E02DBE016B5E7F4FC7010995009719F0E7
:1010A0000CF0C4C0C7C0F701E084F184E8CF9730EA
:1010B00009F4C0C0983021F481E08093F100B6C0FB
:1010C000993009F0B3C0837009F0B4C0E1E1F1E0F8
:1010D00081E021E036E39081992361F08093E9007B
:1010E0002093EB0091919093EC003093ED008F5F93
:1010F000873089F78EE78093EA001092EA008F89A3
:101100008093C00193C08B8D9C8D1092E90010924A
:101110009F0110929E0190939D0180939C01898D67
:10112000811156C08E899D89913A59F4813209F016
:1011300081C047E050E064E071E080E00E94D305A8
:1011400075C0913209F076C0833289F4888D90E0C1
:10115000982F88272F89822BA0E0B0E08093000190
:1011600090930101A0930201B09303015FC080320C
:1011700069F48091E80082FFFCCF67E084E091E0B1
:101180000E94FA058BEF8093E80006C0823209F0D6
:101190004DC08F8980930B018091A101882319F0A4
:1011A000EEEFFAE002C0E0E0F8E0809104019091F7
:1011B0000501A0910601B0910701803B9440A10573
:1011C000B10509F07BC080910B0180FF93C076C010
:1011D0000E945512DC0112960D911C911397011576
:1011E000110541F1D801ED91FC910190F081E02DC4
:1011F000BE016B5E7F4FC8010995811117C0F801D0
:1012000000851185ECCF113009F44EC0133091F4F4
:101210008F89882309F445C0823081F440E860E179
:101220008BE397E00E949605882321F08EEF809350
:10123000E80079C081E28093EB0075C0813029F429
:1012400040E86BE08FE297E0EDCF833099F70E94A2
:101250005512DC011296ED90FC9013978E010F5FF2
:101260001F4F6801E114F10479F0D701ED91FC9171
:101270000680F781E02DB801C7010995080F111DFF
:10128000F701E084F184EECFD8011C92F6010190C1
:101290000020E9F73197BF016C197D0940E0C601D4
:1012A000C1CF69E177E002C06DE177E061157105BA
:1012B00009F2FB01449150E080E840CF0FB6F8946A
:1012C000A895809160008861809360001092600012
:1012D0000FBEA895EE3F2AE0F20739F08091FE0A92
:1012E0009091FF0A91838083A1CF1092FF0A109200
:1012F000FE0A9CCFEE3F8AE0F80731F080819181B1
:101300009093FF0A8093FE0A87E797E79183808393
:101310009BE088E10FB6F894A895809360000FBE1B
:101320009093600083CF6C960FB6F894DEBF0FBE2B
:10133000CDBFDF91CF91FF91EF91BF91AF919F9181
:101340008F917F916F915F914F913F912F911F915D
:101350000F91FF90EF90DF90CF900F900FBE0F9006
:101360001F901895362F90E0FC01E854F94F4491F6
:10137000FC01E45DF54F2491FC01E75AF54F84919F
:10138000882309F451C04423E1F150E0FA01319778
:10139000EF30F105B0F5EA5AFF4F0C94A41C909180
:1013A00080009F7707C0909180009F7D03C090913F
:1013B0008000977F9093800024C094B59F7702C0EF
:1013C00094B59F7D94BD1DC0909190009F7707C0FC
:1013D000909190009F7D03C090919000977F909393
:1013E00090000FC09091C0009F7703C09091C00003
:1013F0009F7D9093C00005C09091C200977F90930D
:10140000C200E82FF0E0EE0FFF1FE55BF54FA5915E
:10141000B4918FB7F894EC91311103C020952E232D
:1014200001C02E2B2C938FBF0895CF93DF9390E0B4
:10143000FC01E45DF54F2491FC01E75AF54F8491DE
:10144000882361F190E0880F991FFC01E450F84F68
:10145000C591D491FC01E55BF54FA591B491611163
:1014600009C09FB7F8948881209582238883EC91E6
:101470002E230BC0623061F49FB7F8943881822F1D
:10148000809583238883EC912E2B2C939FBF06C0DD
:101490008FB7F894E8812E2B28838FBFDF91CF91EF
:1014A00008951F93CF93DF93182FEB0161E00E9403
:1014B000150A209711F460E004C0CF3FD10539F43C
:1014C00061E0812FDF91CF911F910C94B209E12F40
:1014D000F0E0E854F94FE4914E2F50E0FA013197D3
:1014E000EF30F10508F06CC0EB59FF4F0C94A41CD1
:1014F00084B5806884BDC7BD68C084B5806284BD82
:10150000C8BD63C080918000806880938000D093C4
:101510008900C093880059C08091800080628093C8
:101520008000D0938B00C0938A004FC080918000D0
:10153000886080938000D0938D00C0938C0045C05C
:1015400080919000806880939000D0939900C09320
:1015500098003BC080919000806280939000D0936F
:101560009B00C0939A0031C0809190008860809366
:101570009000D0939D00C0939C0027C08091C00034
:1015800080688093C0008091C0008F7B8093C000F2
:10159000C093CF001AC08091C00080628093C000C9
:1015A000C093D00012C08091C20088608093C200B6
:1015B0008091C2008B7F8093C200C093D20005C08F
:1015C000C038D1050CF07CCF76CFDF91CF911F9141
:1015D00008958F929F92AF92BF92CF92DF92EF9237
:1015E000FF926B017C010E946D064B015C01C114EE
:1015F000D104E104F104F1F00E946D06DC01CB019D
:1016000088199909AA09BB09883E9340A105B1052B
:1016100070F321E0C21AD108E108F10888EE880EC3
:1016200083E0981EA11CB11CC114D104E104F10493
:1016300019F7DDCFFF90EF90DF90CF90BF90AF9084
:101640009F908F9008958F929F92AF92BF92CF926A
:10165000DF92EF92FF920F931F93CF93DF935C0182
:101660006B017A0180910B01882309F45BC08091A2
:10167000C001882309F456C08091A20180FF05C0F3
:101680008091E00082608093E000E70110E00AEFC3
:1016900083E0882E9AE3992E2097D9F10E94441274
:1016A00081110AC0015009F43DC061E070E080E0A2
:1016B00090E00E94E90AF0CF282F30E0C217D3074C
:1016C0000CF48C2F4FB7F8948092E9009091E800C9
:1016D00095FF1DC0282F30E0C21BD30BF601982FB9
:1016E000915020F081918093F100FACFC20ED31E69
:1016F000112319F09092E80009C08091E80085FD5F
:1017000006C09092E80011E0209709F010E04FBF6A
:10171000C3CF1111C3CF5D9884E68093A0011E143E
:101720001F0444F081E090E0F5019383828380E020
:1017300090E001C0C701DF91CF911F910F91FF9001
:10174000EF90DF90CF90BF90AF909F908F900895D3
:101750002FB7F89460919401709195018091960152
:10176000909197012FBF08951F920F920FB60F927D
:1017700011242F933F938F939F93AF93BF938091A7
:10178000940190919501A0919601B09197013091AB
:10179000930123E0230F2D3720F40196A11DB11DE5
:1017A00005C026E8230F0296A11DB11D20939301C9
:1017B0008093940190939501A0939601B093970123
:1017C0008091980190919901A0919A01B0919B010B
:1017D0000196A11DB11D8093980190939901A0934A
:1017E0009A01B0939B01BF91AF919F918F913F91CF
:1017F0002F910F900FBE0F901F9018958FB12CB1A5
:1018000093B130E02095309520743327A90123E06F
:10181000559547952A95E1F7292F30E02095309589
:10182000207133273595279535952795242B80955D
:10183000807F822B0895FC0121912EBD9C5F219118
:101840000DB407FEFDCF2EBDE817F907C1F70DB4A3
:1018500007FEFDCF0895CF92DF92EF92FF920F9394
:101860001F93CF93E82FF0E0E858F54FC491E62F8F
:10187000F0E0603330F4E857F94FE4910E2F10E0B8
:1018800006C0EE0FFF1FE857FA4F0591149168014B
:10189000E12CF12C60E074E284EF90E0A701960166
:1018A0000E94721BBA01A9014150510961097109D5
:1018B0004115510581E06807710580F060E970ED20
:1018C00083E090E0A70196010E94721BBA01A90172
:1018D000415051096109710983E001C081E0C130C3
:1018E000C9F0C33031F590919100987F892B809396
:1018F00091005093990040939800109392010093A7
:10190000910181E0809390018091710082608093C9
:1019100071000FC090918100987F892B8093810086
:10192000509389004093880080916F00826080937B
:101930006F00CF911F910F91FF90EF90DF90CF90AC
:1019400008951F920F920FB60F9211242F933F9379
:101950008F939F93AF93BF93EF93FF938091A901D0
:10196000882309F44DC08091A5019091A601A09112
:10197000A701B091A801892B8A2B8B2B51F1809163
:10198000C401E091C501F091C6019081892780834F
:101990008091A5019091A601A091A701B091A80105
:1019A000181619061A061B06A4F58091A501909138
:1019B000A601A091A701B091A8010197A109B109C1
:1019C0008093A5019093A601A093A701B093A801CD
:1019D00020C01092A90180916F008D7F80936F00CD
:1019E0009091C401E091C501F091C6018081282F3A
:1019F00030E0892F90E0809590958223932308C052
:101A00008091C401E091C501F091C60190818927C0
:101A10008083FF91EF91BF91AF919F918F913F9103
:101A20002F910F900FBE0F901F901895E82FF0E0A8
:101A3000E858F54FE491E13019F0E33069F008958A
:101A400080916F008D7F80936F009091C401E09131
:101A5000C501F091C60108C0109290019091C1019A
:101A6000E091C201F091C3018081282F30E0892FDD
:101A700090E08095909582239323808308951F9210
:101A80000F920FB60F9211242F933F934F935F93B2
:101A90006F937F938F939F93AF93BF93EF93FF9336
:101AA00080919001882349F08091C101E091C201A9
:101AB000F091C3019081892780838091A4018823BC
:101AC00009F493C080918C0190918D01A0918E01B9
:101AD000B0918F01892B8A2B8B2B09F486C08091C2
:101AE0008C0190918D01A0918E01B0918F01019791
:101AF000A109B10980938C0190938D01A0938E016F
:101B0000B0938F01892B8A2B8B2B09F06EC0E0914B
:101B10008A01F0918B01BF016F5F7F4F70938B0142
:101B200060938A014491942F907F842F8F70903816
:101B300019F40E94160DEBCF903981F43296F09390
:101B40008B01E0938A01FB0164919091C701891791
:101B5000F0F667FDDCCF0E942B0CD9CF903E29F424
:101B600010928B0110928A01D2CF903F19F41092FB
:101B7000A4013BC097FDCBCF3296F0938B01E0934D
:101B80008A01FB01249130E0342BA0919101B091A6
:101B900092010E94DB1B6C507E4F8F4F9F4F28EEAF
:101BA00033E040E050E00E94501B20938C013093C2
:101BB0008D0140938E0150938F0180918C01909103
:101BC0008D01A0918E01B0918F01892B8A2B8B2BD7
:101BD00061F481E090E0A0E0B0E080938C0190930C
:101BE0008D01A0938E01B0938F01FF91EF91BF9172
:101BF000AF919F918F917F916F915F914F913F91A5
:101C00002F910F900FBE0F901F901895603871059F
:101C100018F54034510500F5A42FA695A695A69574
:101C2000B0E047705527B695BA2FAA27B795A79564
:101C30006A0F7B1FFC01E60FF71F81E090E001C0F7
:101C4000880F4A95EAF7222319F09489892B03C05B
:101C5000809594898923848B08952F923F924F9287
:101C60005F926F927F928F929F92AF92BF92CF922C
:101C7000DF92EF92FF920F931F93CF93DF93CDB735
:101C8000DEB72A970FB6F894DEBF0FBECDBF6A301D
:101C900091F4FC01E85EFB4F408132972081318155
:101CA00058E0459F200D311D112431832083329748
:101CB00011821082C1C06D3009F4BEC09A87898735
:101CC000885E9B4F9C838B83DC012C90E985FA8591
:101CD000EA5EFB4F60807180E985FA85EC5EFB4F20
:101CE000FA83E9830081118100381105D4F0AB81BA
:101CF000BC812C91422F50E0E981FA818081918151
:101D0000F6E02F9F800D911D1124A981BA818D933A
:101D10009C93E985FA85E75EFB4F208121115EC027
:101D20008BC0B0E46B16710414F7C801E5E02E9E79
:101D3000800D911D112418161906CCF6422C512C39
:101D4000C301F8E02F9E800D911D1124181619066D
:101D500074F655E0659F900111243F832E83E12C9A
:101D6000F12C85E0E816F10441F0EE81FF81EE0DE3
:101D7000FF1DE851FF4F349001C0312C630138E062
:101D8000932D91709D834801882D801B8215B0F49E
:101D900056018A2D8C19821568F42D81A501B40194
:101DA00089859A8538870E94060EAFEFAA1ABA0A6B
:101DB0003885EFCFBFEF8B1A9B0AE6CF36943150B0
:101DC000C40CD51C3111DCCFEFEFEE1AFE0A040D66
:101DD000151DF6E0EF16F10421F689CF6AEF6403D2
:101DE0009001659F300D112420583F4F2817390767
:101DF0001CF5A985BA85ED91FC9111970190F081B0
:101E0000E02D6AE0CD012A960FB6F894DEBF0FBE32
:101E1000CDBFDF91CF911F910F91FF90EF90DF9099
:101E2000CF90BF90AF909F908F907F906F905F907A
:101E30004F903F902F9009942A960FB6F894DEBFEA
:101E40000FBECDBFDF91CF911F910F91FF90EF900B
:101E5000DF90CF90BF90AF909F908F907F906F90CA
:101E60005F904F903F902F900895CF93DF93EC01B8
:101E70008AE391E00E948110CE010E94691081E402
:101E800091E0DF91CF910C9469102F923F924F9285
:101E90005F926F927F928F929F92AF92BF92CF92FA
:101EA000DF92EF92FF920F931F93CF93DF93CDB703
:101EB000DEB727970FB6F894DEBF0FBECDBFA22EB8
:101EC000B12C9C012A0D3B1D37FDC1C08038910506
:101ED0000CF0BDC09B01200F311D37FDB8C0603430
:101EE00071050CF0B4C0DB0177FF04C0AA27BB2743
:101EF000A61BB70BA770BB279B0177FF02C0295F0A
:101F00003F4FF3E035952795FA95E1F777FF08C045
:101F10002150310968E070E04B018A1A9B0AD40114
:101F2000402E469446944694512C077019F00FEFBA
:101F3000401A500AB9017695762F662777956795EE
:101F4000680F791F420E531EE12CF12CE8E0F0E0FF
:101F50004F018A1A9B0A9F828E822415350509F447
:101F600076C02830310509F472C02F3F0FEF3007DB
:101F70000CF463C03B0110E8610E711C8B01045F1F
:101F80001C4F6C011B821A828A809B808A149B04DE
:101F90000CF053C0E0E8CE16D10409F44EC0D7FCD3
:101FA00041C02F3FFFEF3F0709F44EC0EA81FB819C
:101FB000EE0DFF1DE40FF51FE49148018618970808
:101FC000860E971E2E2E312CF1010A2E02C0EE0F26
:101FD000FF1F0A94E2F7FD83EC83F4012080EC817B
:101FE000FD81E229FD83EC833C80F401308210976F
:101FF000C9F027303105B1F0EA81FB81EE0DFF1DFC
:10200000E40FF51FE491F0E01F010E8002C035944B
:1020100027940A94E2F7F8019080F101E9294F0131
:10202000F8018082EA81FB813196FB83EA830F5FAE
:102030001F4FFFEFCF1ADF0AA7CF2F5F3F4FEA0CEA
:10204000FB1C60587F4F89CF1097B1F6EBCF2796D6
:102050000FB6F894DEBF0FBECDBFDF91CF911F91B9
:102060000F91FF90EF90DF90CF90BF90AF909F9037
:102070008F907F906F905F904F903F902F9008953A
:10208000EF92FF920F931F93CF93DF937C018B010D
:10209000040F111DEB0177FF0EC0C0E0D0E00BC0B4
:1020A000C217D3077CF420E0AE01B70188E792E0C5
:1020B0000E94060E21969801013411058CF320E44C
:1020C00030E0EECFDF91CF911F910F91FF90EF9015
:1020D0000895BC01009791F0FC0101900020E9F700
:1020E0003197AF01481B590BE091C801F091C9012C
:1020F0000280F381E02D88EC91E0099480E090E08B
:1021000008950C946910E091C801F091C901019003
:10211000F081E02D682F88EC91E009948F929F92D6
:10212000AF92BF920F931F93CF93DF93CDB7DEB7DC
:10213000A1970FB6F894DEBF0FBECDBF19A24230F3
:1021400008F44AE08E010F5D1F4F842E912CA12CC4
:10215000B12CA50194010E94501BE62FB901CA01C0
:1021600001501109EA3014F4E05D01C0E95CD801C6
:10217000EC93232B242B252B61F7C8010E946910B7
:10218000A1960FB6F894DEBF0FBECDBFDF91CF9101
:102190001F910F91BF90AF909F908F9008958F9255
:1021A0009F92AF92BF92CF92DF92EF92FF92CF9326
:1021B000DF936B017C019B01AC010E948B1C882387
:1021C00019F08DE791E027C046015701E894B7F870
:1021D0002FEF3FEF4FE75FE7C501B4010E948B1C73
:1021E00081110DC02FEF3FEF4FE75FE7C501B4014D
:1021F0000E94141A18161CF481E891E00CC02FEF0D
:102200003FEF4FE75FE4C701B6010E94861C181636
:1022100074F485E891E0DF91CF91FF90EF90DF902B
:10222000CF90BF90AF909F908F900C9469102FEF3C
:102230003FEF4FE75FECC701B6010E94141A87FD1C
:10224000E8CF20E030E0A901C701B6010E94141ACE
:1022500087FF09C08DE20E948310EC01F7FAF09429
:10226000F7F8F09402C0C0E0D0E02AE037ED43EA8E
:102270005BE3C701B6010E94EB1B4B015C010E94AE
:10228000571C6B017C010E94191A9B01AC01C5010E
:10229000B4010E94EA1B4B015C014AE0C701B60190
:1022A0000E948E10C80FD91F8EE20E948310C80FA3
:1022B000D91F20E030E040E251E4C501B4010E94A2
:1022C0007A1A4B015C010E94571C6B01E12CF12C26
:1022D0004AE0C701B6010E948E10C80FD91FC7017E
:1022E000B6010E94191A9B01AC01C501B4010E94FC
:1022F000EA1B20E030E040E251E40E947A1A0E949A
:10230000571C80E090E04AE00E948E108C0F9D1FC9
:10231000DF91CF91FF90EF90DF90CF90BF90AF9083
:102320009F908F900895CF93DF939091C701923043
:1023300009F46EC0C82F292F30E0F901E858F54F95
:10234000D491F901E256F94F80839F5F9093C701C2
:1023500061E00E94150AD13019F0D33039F158C02C
:10236000109280001092810080918100886080939B
:102370008100809181008160809381008C2F90E0AA
:10238000FC01E75AF54FE491F0E0EE0FFF1FE55B2B
:10239000F54F259134913093C6012093C501FC017E
:1023A000E45DF54F84918093C40132C01092900097
:1023B00010929100809191008860809391008091AB
:1023C00091008160809391008C2F90E0FC01E75A8E
:1023D000F54FE491F0E0EE0FFF1FE55BF54F25911F
:1023E00034913093C3012093C201FC01E45DF54FA9
:1023F00084918093C1018091C701882321F06CE30F
:1024000080E00E942B0C80E0DF91CF910C94160DA0
:10241000DF91CF91089520E08CE892E0B22FB111C6
:10242000BFEFFC010024B193B193B193B193039436
:10243000D1F70895FC018091C001811103C08FEF95
:102440009FEF08959FB7F89482E08093E900209170
:10245000F20030E01216130614F421E030E02115EA
:10246000310559F0289884E68093BF018091F100EE
:1024700080838091F200882319F09FBFC9010895DD
:102480008BE68093E800F9CF2FB7F89483E0809330
:10249000E9009091E800892F807295FF04C0909127
:1024A000F20080E4891B2FBF089580919606811168
:1024B0000DC082E08093920684E080939306109290
:1024C00095061092940681E08093960682E996E044
:1024D0000895CF93DF93CDB7DEB7A3970FB6F894E7
:1024E000DEBF0FBECDBF789484B5826084BD84B555
:1024F000816084BD85B5826085BD85B5816085BDFF
:1025000080916E00816080936E00109281008091B6
:10251000810082608093810080918100816080933E
:102520008100809180008160809380008091910083
:1025300082608093910080919100816080939100EE
:10254000809190008160809390008091C1008460B0
:102550008093C1008091C10082608093C10080910E
:10256000C10081608093C1008091C300816080932D
:10257000C3008091C00082608093C0008091C2003F
:1025800081608093C20080917A00846080937A0099
:1025900080917A00826080937A0080917A008160D5
:1025A00080937A0080917A00806880937A001092FC
:1025B000C0011092A3011092A2018091D700816006
:1025C0008093D70080EA8093D80089B5806189BD67
:1025D00089B5826089BD09B400FEFDCF61E070E07D
:1025E00080E090E00E94E90A8091D8008F7C8061B1
:1025F0008093D8008091E000807F8093E0008091FC
:10260000E1008E7E8093E1008DE08093E200559A98
:10261000209AEEEFFFE7859194918B3F9C4D19F442
:1026200081E08093A1018FEF9FEF9093D50180937C
:10263000D40110910B016AE070E080E090E00E940C
:10264000E90A1123B1F31FB7F8948091AB0181110E
:1026500027C0EAE6FAE08491EDE3FAE09491E82FEE
:10266000F0E0EE0FFF1FE450F84FA591B491EC910C
:10267000E92321F461E081E10E94B20961E081E196
:102680000E94150A8CB580618CBD8CB580648CBDB0
:1026900061E08FE00E94150A61E080E10E94150A66
:1026A0008091AB018F5F8093AB011FBF07E118E002
:1026B000F80184910E5F1F4F31966491882319F0C1
:1026C0000E94150AF5CF61E086E00E94B20961E040
:1026D00070E080E090E00E94E90A60E086E00E94FD
:1026E000B2096AE070E080E090E00E94E90A61E0EF
:1026F00086E00E94B209E5E6FAE0E491F0E0EE0F30
:10270000FF1FE55BF54F859194919093B101809304
:10271000B001E8E3FAE0E491E093AF01EDE5FAE01F
:10272000E491F0E0EE0FFF1FE55BF54F859194918A
:102730009093AE018093AD01E0E3FAE0E491E09381
:10274000AC018CB58C7F8CBD8DB581608DBDE09169
:10275000B001F091B10190818091AF01982B9083ED
:10276000A091AD01B091AE012C919091AC019095EA
:1027700092239C939081809589238083EAE0F8E0FE
:1027800028E0E731F20749F084918EBD00000DB4D6
:1027900007FEFDCF8EB53196F3CFE091AD01F091FC
:1027A000AE0190818091AC01892B8083E091B001D2
:1027B000F091B10190818091AF0180958923808350
:1027C00080916400816080936400809164008260E5
:1027D000809364008091640080688093640080919D
:1027E00064008064809364008091650081608093C0
:1027F00065000E94FE0B87FF1AC080E094E01EBCBB
:1028000000000DB407FEFDCF2EB50197C1F760E0C3
:1028100070E08AE00E94510A60E070E08BE00E9464
:10282000510A60E070E089E00E94510AFFCF7EEE1D
:10283000E72EFF24FA9418E1CC24CA94D12C812FDE
:102840008E19B601681B71098AE00E94510A6FEF68
:1028500070E08BE00E94510A6FEF70E089E00E9407
:10286000510A0E940B1200E128E54CE457E0B70141
:1028700084E190E00E94450F8CE892E00E941B0CDE
:102880006BE170E080E090E00E94E90A80EFE812DE
:1028900006C06AEF70E080E090E00E94E90A9FEFD6
:1028A000E91AF90AA9E1EA16F10449F66EEE72E0B6
:1028B00080E090E00E94E90A6FEF70E08AE00E94F9
:1028C000510A6FEF70E08BE00E94510A6FEF70E0E9
:1028D00089E00E94510A85E00E9493118DE00E94D8
:1028E00093111092A40182E090E00E94381B88238B
:1028F00069F080916400877F809364008091650017
:10290000877F8093650081E08093AA01E7E2F2E08F
:102910001192B2E0E837FB07D9F784E090E090939A
:10292000240280932302909322028093210200913B
:10293000BE010093BD010E94FE0B182F8093BE01C3
:102940000E94A80BC0901D02D0901E02E0901F02B2
:10295000F0902002ECE2CE0EE1E0DE1EE11CF11C64
:10296000C616D706E806F90690F40E94A80B6093F5
:102970001D0270931E0280931F029093200281E03B
:1029800090912602913009F480E0809326020E9403
:10299000FE0B07FD13C017FF11C08091210290911B
:1029A00022028830910534F401969093220280939C
:1029B000210204C0109222021092210204FD11C0D3
:1029C00014FF0FC08091210290912202181619065F
:1029D00014F4019702C088E090E090932202809363
:1029E000210205FD15C015FF13C0809123029091AF
:1029F00024021816190634F4019790932402809348
:102A0000230206C0A8E0B0E0B0932402A093230202
:102A100006FD13C016FF11C080912302909124027D
:102A20008830910534F40196909324028093230218
:102A300004C0109224021092230203FD9CC013FFD5
:102A40009AC080912302909124022091210230911A
:102A5000220249E0429FF001439FF00D1124E85EFD
:102A6000FD4FE80FF91F1785112309F181E08093CD
:102A7000A90180918100887F81608093810084E535
:102A800090ED90938900809388008EE190E0A0E023
:102A9000B0E08093A5019093A601A093A701B09305
:102AA000A80180916F00826080936F0064C0809164
:102AB0001902878781E08093A90180918100887F36
:102AC000816080938100AFE9BFE0B0938900A0935B
:102AD000880080E991E0A0E0B0E08093A5019093A8
:102AE000A601A093A701B093A80180916F00826016
:102AF00080936F00E7E2F2E0908180911B028923CE
:102B0000819392E0E837F907B9F770911A02609162
:102B10001C0248E152E020E030E080E090E0FA0161
:102B2000E80FF91FA785BA2FB72309F064C20196F1
:102B300089309105A1F7475F5F4F1F5F193069F733
:102B40000E94BB1860E070E00E94901CFC01EE0F38
:102B5000FF1FA1E0B0E0AC0FBD1FEA0FFB1F81819A
:102B6000E0811E9FF0011124E85EFD4FE80FF11D8A
:102B70008091180287878091BD0182FD15C08091E8
:102B8000BE0182FF11C0E7E2F2E01192B2E0E83745
:102B9000FB07D9F784E090E090932402809323020E
:102BA000909322028093210288EC91E00E945306C8
:102BB000892B09F45FC1FE0131967F0100E010E02E
:102BC0000E94A80B6093D0017093D1018093D20131
:102BD0009093D301E091C801F091C9010284F3857B
:102BE000E02D88EC91E0099597FD04C08D309105AA
:102BF000F9F427C00E94A80B8090D0019090D101D9
:102C0000A090D201B090D301DC01CB0188199909C1
:102C1000AA09BB098090CC019090CD01A090CE0173
:102C2000B090CF0188159905AA05BB0598F209C097
:102C3000D7018D937D010F5F1F4F0032110509F001
:102C4000BFCFE1E0F0E0EC0FFD1FE00FF11F1082BD
:102C50001092BC0167E171E0CE0101960E94E51976
:102C60000091BC01009799F0053088F421E0200F15
:102C70002093BC01E02FF0E0EE0FFF1FEE54FE4F5B
:102C80009183808367E171E080E090E0E7CF0023EB
:102C900009F4F0C0E090B201F090B301F701808137
:102CA000843621F0873609F44CC0E1C064E471E059
:102CB000C7010E94CB1C892B09F4DCC061E571E0DF
:102CC000C7010E94CB1C892B09F0D1C049E0E42E3A
:102CD000F12C00E610E00E191F09085E1D4F38E0C8
:102CE000C32ED12CD8012C9190911802922319F067
:102CF0008CE591E009C080911902822319F08FE5DB
:102D000091E002C082E691E00E948110F80190817A
:102D100080911C02892319F085E691E002C087E6C4
:102D200091E00E948110F1E0CF1AD10809501109F9
:102D30002FEFC216D206B1F681E0E81AF10849F683
:102D400091C069E671E0C7010E94CB1C892B09F094
:102D50008EC010E00130110509F48CC040E150E054
:102D600060E070E08091B4019091B5010E94CB18B1
:102D70006B017C010230110531F0E091B601F09158
:102D8000B701108101C019E681E791E00E9481102E
:102D900040E1C701B6010E948E1089E791E00E94D0
:102DA00081101C3409F446C04CF4163409F44CC0AC
:102DB0001934F9F0143409F04EC046C0163609F43F
:102DC00043C024F4143609F43FC045C0193649F015
:102DD0001C3609F040C0F601C080D180E280F3804B
:102DE00017C0F601C080D1800D2C000CEE08FF0842
:102DF0000FC086E791E00E948110F6016081718129
:102E0000072E000C880B990B40E10E948E1023C006
:102E1000F7FE0CC08DE20E94831066277727CB0156
:102E20006C197D098E099F094AE0EFCF4AE0C7017E
:102E3000B601EBCF86E791E00E948110F601608138
:102E4000718182819381E0CFF601608171818281FD
:102E500093810E94CF10812F110F990B0E94C31CE8
:102E60000E94831081E491E00E94691003C0C701B1
:102E70000E94350F0E940B1200E420E44CE258E05F
:102E800060E070E081E490E00E94450F80912602AE
:102E9000882339F028E1222E22E0322E0AE310E0C6
:102EA0004BC0209121023091220249EF4203600180
:102EB000439FD00C112499E3C90ED11C80912302A9
:102EC0009091240227E0289F8001299F100D112452
:102ED0007801A2E4EA0EF11C085B1F4FE016F10630
:102EE000C9F246E0B601C7010E944010BFEFEB1ADD
:102EF000FB0AF4CF44E0B801C7010E94401044E04F
:102F0000B801C70103960E9440109FEF491A590A61
:102F1000A7E0EA0EF11CB7E0AB0EB11CE9E04E16DB
:102F20005104B1F407501109F9E02F0E311C0B3F89
:102F30002FEF120709F453C0C80103969BA38AA37D
:102F4000B7E4AB2EB12C83E4E82EF12C412C512CAC
:102F5000F101E40DF51D278590911802922361F18E
:102F60006701F7FE02C0C12CD12C46013501F1E802
:102F7000AF16B1041CF090E8692E712C86149704EA
:102F80005CF420E0A801B40188E792E00E94060EFC
:102F9000EFEF8E1A9E0AEACFC614D7040CF0AACF20
:102FA00020E04AA15BA1B60188E792E00E94060EEC
:102FB0002FEFC21AD20AF0CF80911902822309F4AE
:102FC000A4CF6701CA14DB0409F49FCF44E0B80121
:102FD000C6010E9440108FEFC81AD80AF3CF8CE8C0
:102FE00092E00E941B0C80E090E0892B09F49FCCBA
:102FF0000E9400009CCCA62BA787F901EE0FFF1FB3
:10300000A1E0B0E0AC0FBD1FEA0FFB1F108381836E
:103010002F5F3F4F8CCD1092CB011092CA0188EEEA
:1030200093E0A0E0B0E08093CC019093CD01A09319
:10303000CE01B093CF0180E291E09093C9018093DB
:10304000C8018FEF9FEF9093D5018093D401109228
:103050007B0210927A0282E391E09093790280934E
:1030600078028CE380937E0280E18093810210924B
:10307000800210927F0210928602109287021092B4
:1030800088021092890210928A0210928D06109284
:103090008C0610928F0610928E0681E08093900627
:1030A0008093180282E08093190283E080931A02D1
:1030B00080931B0284E080931C02E7E2F2E011920D
:1030C00082E0E837F807D9F784E090E09093240293
:1030D00080932302909322028093210208958F927D
:1030E0009F92AF92BF92CF92DF92EF92FF92CF93D7
:1030F000DF93EC01688179818A819B81611571057B
:103100008105910521F464E279ED8BE597E02DE1ED
:1031100033EF41E050E00E94721B49015A019B01CC
:10312000AC01A7EAB1E40E94911B6B017C01ACEEFB
:10313000B4EFA50194010E949F1BDC01CB018C0D13
:103140009D1DAE1DBF1DB7FF03C00197A109B0486B
:1031500088839983AA83BB839F77DF91CF91FF9068
:10316000EF90DF90CF90BF90AF909F908F90089599
:103170000E946F1808958CE091E00E946F180895E6
:10318000A0E0B0E080930C0190930D01A0930E019C
:10319000B0930F010895A0E0B0E0E1EDF8E10C94E8
:1031A000A41B5C016B017A016115710519F0FB012B
:1031B00091838083E114F10429F0C701029783977A
:1031C00008F0F1C0E5012196F5011081812F90E012
:1031D0000E94DC19892B11F05E01F4CF1D3229F415
:1031E0002196F501118101E007C01B3221F4E501B0
:1031F0002296F501118100E0E114F10459F1F0E1AA
:10320000EF16F10461F41033E1F488818F7D883585
:1032100069F519812296026070E1E72EF12C88E0B1
:10322000E816F10439F12CF4F2E0EF16F104C9F1DB
:103230002AC08AE0E816F10479F0E0E1EE16F10424
:1032400011F550E1E52EF12C812C912CA12C68E098
:10325000B62E2CC01033C9F23AE0E32EF12C4CEC20
:10326000842E982CA82C4CE0B42E20C010E3E1143E
:10327000F104A9F698E0E92EF12C812C912CA12CD7
:1032800020E1B22E13C060E070E080E090E897018A
:103290000F2C000C440B550B0E94501B49015A0186
:1032A00005C0812C912CA12C80E4B82E60E020E098
:1032B00030E0A90127010F2C000C660877081E01D9
:1032C000E0EDE10FEA3060F08FEB810F8A3110F40E
:1032D000E9EC05C08FE9810F8A3128F5E9EAE10FB1
:1032E0008E2F90E08E159F05F4F467FD18C08216AE
:1032F0009306A406B50690F0C301B2010E94401BDC
:103300009B01AC012E0F311D411D511D2130310596
:103310004105F0E85F0710F461E001C06FEF21960E
:10332000F1011081CCCF802F8170C114D10471F0D4
:10333000662329F02197F601D183C08307C001FFDE
:1033400019C02297F601D183C08314C067FF12C051
:10335000811105C02FEF3FEF4FEF5FE704C020E082
:1033600030E040E050E882E290E09093A306809342
:10337000A20616C0882341F05095409530952195BE
:103380003F4F4F4F5F4F0CC057FF0AC082E290E0A3
:103390009093A3068093A2062FEF3FEF4FEF5FE7D6
:1033A000B901CA0104C060E070E080E090E0CDB7F0
:1033B000DEB7E2E10C94C01B91110C94111A80321B
:1033C00019F089508550C8F7089540EA56E00E94E8
:1033D000EA190895FA01A191B081009719F41097A4
:1033E000E1F0CD01DC01CD010D90002011F4C00110
:1033F00013C0FB012191222319F02015D9F7F3CF37
:10340000FB012191201519F41E92119606C022236A
:10341000C1F70D900020A1F7D001FA01A193B0836C
:1034200008959927882708950E94561A08F481E084
:103430000895E89409C097FB3EF4909580957095A7
:1034400061957F4F8F4F9F4F9923A9F0F92F96E9F0
:10345000BB279395F695879577956795B795F11165
:10346000F8CFFAF4BB0F11F460FF1BC06F5F7F4F02
:103470008F4F9F4F16C0882311F096E911C0772314
:1034800021F09EE8872F762F05C0662371F096E81D
:10349000862F70E060E02AF09A95660F771F881FEC
:1034A000DAF7880F9695879597F90895990F000890
:1034B000550FAA0BE0E8FEEF16161706E807F90706
:1034C000C0F012161306E407F50798F0621B730BA1
:1034D000840B950B39F40A2661F0232B242B252B22
:1034E00021F408950A2609F4A140A6958FEF811DC5
:1034F000811D08950E948D1A0C94FE1A0E94F01AE4
:1035000038F00E94F71A20F0952311F00C94E71A76
:103510000C94ED1A11240C94321B0E940F1B70F3B3
:10352000959FC1F3950F50E0551F629FF001729F68
:10353000BB27F00DB11D639FAA27F00DB11DAA1F77
:10354000649F6627B00DA11D661F829F2227B00DC4
:10355000A11D621F739FB00DA11D621F839FA00D4F
:10356000611D221F749F3327A00D611D231F849F9F
:10357000600D211D822F762F6A2F11249F575040F6
:103580009AF0F1F088234AF0EE0FFF1FBB1F661F71
:10359000771F881F91505040A9F79E3F510580F03A
:1035A0000C94E71A0C94321B5F3FE4F3983ED4F37B
:1035B000869577956795B795F795E7959F5FC1F7DE
:1035C000FE2B880F911D9695879597F9089597F989
:1035D0009F6780E870E060E008959FEF80EC0895B9
:1035E00000240A94161617061806090608950024E2
:1035F0000A9412161306140605060895092E03945C
:10360000000C11F4882352F0BB0F40F4BF2B11F4CF
:1036100060FF04C06F5F7F4F8F4F9F4F089557FD2E
:103620009058440F551F59F05F3F71F04795880F30
:1036300097FB991F61F09F3F79F0879508951216C7
:1036400013061406551FF2CF4695F1DF08C0161673
:1036500017061806991FF1CF869571056105089424
:103660000895E894BB2766277727CB0197F908953B
:10367000F999FECF92BD81BDF89A992780B508953A
:10368000DB018F939F930E94911BBF91AF91A29FEB
:10369000800D911DA39F900DB29F900D1124089550
:1036A000A1E21A2EAA1BBB1BFD010DC0AA1FBB1F46
:1036B000EE1FFF1FA217B307E407F50720F0A21BB8
:1036C000B30BE40BF50B661F771F881F991F1A9425
:1036D00069F760957095809590959B01AC01BD014F
:1036E000CF010895052E97FB1EF400940E94891BBC
:1036F00057FD07D00E94501B07FC03D04EF40C94DA
:10370000891B50954095309521953F4F4F4F5F4F06
:10371000089590958095709561957F4F8F4F9F4F3D
:1037200008950E94DB1BA59F900DB49F900DA49F50
:10373000800D911D11240895B7FF0C94911B0E94D8
:10374000911B821B930B08952F923F924F925F9291
:103750006F927F928F929F92AF92BF92CF92DF92A1
:10376000EF92FF920F931F93CF93DF93CDB7DEB706
:10377000CA1BDB0B0FB6F894DEBF0FBECDBF09949A
:103780002A88398848885F846E847D848C849B84F1
:10379000AA84B984C884DF80EE80FD800C811B81FF
:1037A000AA81B981CE0FD11D0FB6F894DEBF0FBE2E
:1037B000CDBFED010895A29FB001B39FC001A39FAB
:1037C000700D811D1124911DB29F700D811D11245A
:1037D000911D08955058BB27AA270E94021C0C94E3
:1037E000FE1A0E94F01A38F00E94F71A20F039F4FD
:1037F0009F3F19F426F40C94ED1A0EF4E095E7FBC4
:103800000C94E71AE92F0E940F1B58F3BA176207AE
:1038100073078407950720F079F4A6F50C94311B03
:103820000EF4E0950B2EBA2FA02D0B01B9019001DB
:103830000C01CA01A0011124FF27591B99F0593F1F
:1038400050F4503E68F11A16F040A22F232F342F67
:103850004427585FF3CF469537952795A795F040B5
:103860005395C9F77EF41F16BA0B620B730B840BCA
:10387000BAF09150A1F0FF0FBB1F661F771F881F82
:10388000C2F70EC0BA0F621F731F841F48F48795DA
:1038900077956795B795F7959E3F08F0B0CF9395CC
:1038A000880F08F09927EE0F9795879508950E9445
:1038B000171B88F09F5798F0B92F9927B751B0F090
:1038C000E1F0660F771F881F991F1AF0BA95C9F7A4
:1038D00014C0B13091F00E94311BB1E008950C94F6
:1038E000311B672F782F8827B85F39F0B93FCCF3A9
:1038F000869577956795B395D9F73EF49095809521
:10390000709561957F4F8F4F9F4F08950E94561A73
:1039100008F48FEF08950E94561A880B990B0895AA
:1039200097FB072E16F4009407D077FD09D00E946C
:10393000AA1C07FC05D03EF4909581959F4F0895F1
:10394000709561957F4F0895EE0FFF1F0590F491DC
:10395000E02D0994AA1BBB1B51E107C0AA1FBB1F86
:10396000A617B70710F0A61BB70B881F991F5A950B
:10397000A9F780959095BC01CD01089581E090E074
:10398000F8940C94D41C9111089581548A5108F430
:10399000805E855A0895FB01DC018D9101908019AC
:0C39A0000110D9F3990B0895F894FFCFA3
:1039AC00FFFFFFFF00E1000000000000010000002D
:1039BC0000C1808100000020090A0D0000000000F9
:1039CC003206230BCA0648065306F206CE06000042
:1039DC0000002D0E070693069206576861743A2074
:1039EC00000D0A0064756D702D676C6F62616C73ED
:1039FC000064756D702D626F617264002057002039
:103A0C004200202E0076002D006765742D6D656DCB
:103A1C00004164647220307800203D20006E616E9D
:0A3A2C0000696E66006F7666000008
:00000001FF
